:10024C0002270000020C0000022A0000021C000021
:10025C00010E00011100010F00012900010B00012A
:10026C002400011000021A000001250001230001E6
:0E027C002602051E6061626364030864646408
:03000B00020144AB
:10014400C0E0C0D00528E52870020527050DE50D9F
:100154007002050C052BE52B7002052A051DE51D13
:100164007002051CC39414E51C64809480400975D6
:100174001C00751D00750B01C3E50D9432E50C647C
:10018400809480400C750C00750D00751101752963
:1001940001C3E52894E8E527648094834008752723
:1001A40000752800B2CCC3E52B9464E52A648094DE
:1001B400804009752A00752B00750F01D0D0D0E05E
:0101C4003208
:10033000EF1FAA0670011E4A60107C137D88ED1D18
:0A034000AA0470011C4A60E880F472
:01034A002290
:080003003099FDC2998F99228A
:1002C900E4F594F593F592F591F596F595F5B2F572
:1002D900B1F5B4F5B3F5CAF5C9F5CCF5CBF5E2F549
:1002E900E1438E80F589758ACD758CD4D28CD2A9DB
:0802F900D2AF12036F02035F94
:100301001202C9E50B6006E4F50B12028BE51160E0
:1003110006E4F51112000EE5296008E4F529AF2580
:0F03210012020DE50F60DCE4F50F1201C580D468
:10000E00E4FF20A4077F2143230180035323FE2016
:10001E00A50D7F22E510700A75100105248003E4FA
:10002E00F51020A6077F2343230480035323FB20D0
:10003E00A7077F2443230880035323F7208011E56D
:10004E000E6003B4010A7F41432310750E018059DF
:10005E00208111E50E6003B4020A7F42432320750E
:10006E000E028045208211E50E6003B4030A7F4321
:10007E00432340750E038031208324E50E6003B4C4
:10008E00041D7F44051BE51B7002051AD39428E559
:10009E001A648094804012432380750E04800A53A4
:0900AE00230FE4F51AF51BF50E11
:0100B7002226
:10020D00BF2103C2A322BF2203B2A222BF2303C276
:10021D00A122BF2403C2A022BF4103C2C422BF42F8
:10022D0003C2C322BF4303C2C222BF4403C2C122C1
:0F023D00D2A3D2A1D2A0D2C4D2C3D2C2D2C122E4
:0F036F00759DFFE4F5BD75BCC07F05FE02033030
:10034B00EF44C8F5BC00000000E5BC30E4FB53BC37
:04035B00EFAFBD2221
:0E037E00EFC39414400674EC2FFF8002E4FFDE
:01038C00224E
:10028B00AF2612034B741E2526F8A607E526B402EB
:10029B0008241EF8E6F5088018E526B40308241E8A
:1002AB00F8E6F509800BE526B40406241EF8E6F5FE
:0E02BB000A0526E526D3940440037526022288
:10035F0075985A75D7E075D6FE438E14438E0122D9
:1001C500E52430E00543230280035323FD7512FF28
:1001D500850813850914850A15E4F516852317E5A1
:1001E50023F4F518E5132514251525162517F519F6
:1001F500E4FCFD74122DF8E6FF1200030DBD0001AD
:070205000CED64084C70ECE5
:01020C0022CF
:030000000200B843
:0C00B800787FE4F6D8FD75812B0200FF74
:1000C400020301E493A3F8E493A34003F68001F24E
:1000D40008DFF48029E493A3F85407240CC8C3333D
:1000E400C4540F4420C8834004F456800146F6DF0C
:1000F400E4800B010204081020408090024CE47E4E
:10010400019360BCA3FF543F30E509541FFEE49300
:10011400A360010ECF54C025E060A840B8E493A3C7
:10012400FAE493A3F8E493A3C8C582C8CAC583CAF2
:10013400F0A3C8C582C8CAC583CADFE9DEE780BEAA
:01028A000073
:00000001FF
