:1003B600022C0000020C000002300000021C0000AB
:1003C600010E00011100010F00012F00010B0001B9
:1003D6002800011000021A00000129000125000171
:1003E6002A02052060616263640308646464011E76
:1003F60064011F64012B64012E64012664012764D5
:03000B0002026787
:10026700C0E0C0D0052DE52D7002052C050DE50D6C
:100277007002050C0531E53170020530051DE51DDD
:100287007002051CC39414E51C64809480400975B2
:100297001C00751D00750B01C3E50D9432E50C6458
:1002A700809480400C750C00750D00751101752F39
:1002B70001C3E52D94E8E52C648094834008752CF0
:1002C70000752D00B2CCC3E5319464E530648094A9
:1002D700804009753000753100750F01D0D0D0E02E
:0102E70032E4
:1004F800EF1FAA0670011E4A60107C137D88ED1D4F
:0A050800AA0470011C4A60E880F4A8
:0105120022C6
:080003003099FDC2998F99228A
:10048E00E4F594F593F592F591F596F595F5B2F5AB
:10049E00B1F5B4F5B3F5CAF5C9F5CCF5CBF5E2F582
:1004AE00E1438E80F589758ACD758CD4D28CD2A914
:0804BE00D2AF120578020568B7
:10013100E4FF20A4077F2143250180035325FE20EE
:10014100A50D7F22E510700A75100105288003E4D2
:10015100F51020A6077F2343250480035325FB20A8
:10016100A7077F2443250880035325F7208011E545
:100171000E6003B4010A7F41432510750E018059B9
:10018100208111E50E6003B4020A7F4243252075E8
:100191000E028045208211E50E6003B4030A7F43FD
:1001A100432540750E038031208324E50E6003B49E
:1001B100041D7F44051BE51B7002051AD39428E535
:1001C1001A648094804012432580750E04800A537E
:0901D100250FE4F51AF51BF50EEB
:0101DA002202
:10044F00BF2103C2A322BF2203B2A222BF2303C232
:10045F00A122BF2403C2A022BF4103C2C422BF42B4
:10046F0003C2C322BF4303C2C222BF4403C2C1227D
:0F047F00D2A3D2A1D2A0D2C4D2C3D2C2D2C122A0
:0F057800759DFFE4F5BD75BCC07F05FE0204F85C
:10054000EF44C8F5BC00000000E5BC30E4FB53BC40
:04055000EFAFBD222A
:0D058700E4F5C7F5C5F5C675C380F5C422BF
:1005130075C78375C5018FC48EC375C65A75C6A5C5
:0605230000AFC2120587C3
:0105290022AF
:10052A0075C78375C5028FC48EC38DC275C65A75C9
:06053A00C6A500020587C2
:1005540075C78375C5038FC48EC375C65A75C6A582
:040564000002058705
:1002E8007F107E001205138F2BE52BB4FF03752BAF
:1002F800807F107E021205138F2EE52EB4FF037542
:100308002E807F107E041205138F1EE51EB4FF0396
:10031800751E807F107E061205138F1FE51FB4FF20
:1003280003751F807F107E081205138F26E526B4FB
:10033800FF037526807F107E121205138F27E5278D
:07034800B4FF0375278022BA
:1004C60012048E1202E8E50B6006E4F50B12000E2C
:1004D600E5116006E4F511120131E52F6008E4F537
:1004E6002FAF2912044FE50F60DCE4F50F12040765
:0204F60080D4B0
:0A059400AB07AA0612055402052A5F
:10000E00AF2A1205407420252AF8A607E52A6402B5
:10001E0070547420252AF8E6FFC3952B500B8F2BB6
:10002E00AD2B7F107E001205947420252AF8E6FF72
:10003E00D3952E400B8F2EAD2E7F107E021205947F
:10004E007420252AF8E6C3952BFFE49400FE7C006D
:10005E007DC812034FC3E52E952BFDE49CFC1203C5
:10006E00618F08020124E52A640370537420252A47
:10007E00F8E6FFC3951E500B8F1EAD1E7F107E043B
:10008E001205947420252AF8E6FFD3951F400B8F96
:10009E001FAD1F7F107E061205947420252AF8E6E8
:1000AE00C3951EFFE49400FE7C007DC812034FC36F
:1000BE00E51F951EFDE49CFC1203618F098057E538
:1000CE002A640470517420252AF8E6FFC395265041
:1000DE000B8F26AD267F107E081205947420252ADC
:1000EE00F8E6FFD39527400B8F27AD277F107E12A2
:1000FE001205947420252AF8E6C39526FFE4940091
:10010E00FE7C007DC812034FC3E5279526FDE49CB7
:10011E00FC1203618F0A052AE52AD3940440037565
:03012E002A022280
:1005680075985A75D7E075D6FE438E14438E0122CE
:10040700E52830E00543250280035325FD7512FFDB
:10041700850813850914850A15E4F516852517E55A
:1004270025F4F518E5132514251525162517F519AF
:10043700E4FCFD74122DF8E6FF1200030DBD000168
:070447000CED64084C70ECA1
:01044E00228B
:030000000201DB1F
:0C01DB00787FE4F6D8FD75813102022225
:10034F00EF8DF0A4A8F0CF8CF0A428CE8DF0A42EC2
:02035F00FE227C
:10036100BC000BBE0029EF8DF084FFADF022E4CC80
:10037100F875F008EF2FFFEE33FEEC33FCEE9DEC49
:10038100984005FCEE9DFE0FD5F0E9E4CEFD22ED8F
:10039100F8F5F0EE8420D21CFEADF075F008EF2FD9
:1003A100FFED33FD4007985006D5F0F222C398FDCA
:0503B1000FD5F0EA2267
:1001E7000204C6E493A3F8E493A34003F68001F264
:1001F70008DFF48029E493A3F85407240CC8C33319
:10020700C4540F4420C8834004F456800146F6DFE7
:10021700E4800B01020408102040809003B6E47EBE
:10022700019360BCA3FF543F30E509541FFEE493DC
:10023700A360010ECF54C025E060A840B8E493A3A3
:10024700FAE493A3F8E493A3C8C582C8CAC583CACE
:10025700F0A3C8C582C8CAC583CADFE9DEE780BE86
:0104060000F5
:00000001FF
