:10032A0002270000020C0000022A0000021C000042
:10033A00010E00011100010F00012900010B00014B
:10034A002400011000021A00000125000123000107
:0E035A002602051E6061626364030864646429
:03000B00020144AB
:10014400C0E0C0D00528E52870020527050DE50D9F
:100154007002050C052BE52B7002052A051DE51D13
:100164007002051CC39414E51C64809480400975D6
:100174001C00751D00750B01C3E50D9432E50C647C
:10018400809480400C750C00750D00751101752963
:1001940001C3E52894E8E527648094834008752723
:1001A40000752800B2CCC3E52B9464E52A648094DE
:1001B400804009752A00752B00750F01D0D0D0E05E
:0101C4003208
:1003D000EF1FAA0670011E4A60107C137D88ED1D78
:0A03E000AA0470011C4A60E880F4D2
:0103EA0022F0
:080003003099FDC2998F99228A
:10036900E4F594F593F592F591F596F595F5B2F5D1
:10037900B1F5B4F5B3F5CAF5C9F5CCF5CBF5E2F5A8
:10038900E1438E80F589758ACD758CD4D28CD2A93A
:08039900D2AF12040F0203FFB2
:1003A100120369E50B6006E4F50B1201C5E5116066
:1003B10006E4F51112000EE5296008E4F529AF25E0
:0F03C1001202EBE50F60DCE4F50F1202A380D40B
:10000E00E4FF20A4077F2143230180035323FE2016
:10001E00A50D7F22E510700A75100105248003E4FA
:10002E00F51020A6077F2343230480035323FB20D0
:10003E00A7077F2443230880035323F7208011E56D
:10004E000E6003B4010A7F41432310750E018059DF
:10005E00208111E50E6003B4020A7F42432320750E
:10006E000E028045208211E50E6003B4030A7F4321
:10007E00432340750E038031208324E50E6003B4C4
:10008E00041D7F44051BE51B7002051AD39428E559
:10009E001A648094804012432380750E04800A53A4
:0900AE00230FE4F51AF51BF50E11
:0100B7002226
:1002EB00BF2103C2A322BF2203B2A222BF2303C298
:1002FB00A122BF2403C2A022BF4103C2C422BF421A
:10030B0003C2C322BF4303C2C222BF4403C2C122E2
:0F031B00D2A3D2A1D2A0D2C4D2C3D2C2D2C12205
:0F040F00759DFFE4F5BD75BCC07F05FE0203D0EF
:1003EB00EF44C8F5BC00000000E5BC30E4FB53BC97
:0403FB00EFAFBD2281
:0E041E00EFC39414400674EC2FFF8002E4FF3D
:01042C0022AD
:1001C500AF261203EB741E2526F8A607E526B40212
:1001D5001B241EF8E624A5FFE434FFFE7C007DC841
:1001E50012023C7D5012024E8F08803EE526B40374
:1001F5001B241EF8E624A8FFE434FFFE7C007DC81E
:1002050012023C7D4F12024E8F09801EE526B40472
:1002150019241EF8E624B6FFE434FFFE7C007DC8F1
:1002250012023C7D6912024E8F0A0526E526D394FB
:0702350004400375260222BC
:1003FF0075985A75D7E075D6FE438E14438E012239
:1002A300E52430E00543230280035323FD7512FF49
:1002B300850813850914850A15E4F516852317E5C2
:1002C30023F4F518E5132514251525162517F51917
:1002D300E4FCFD74122DF8E6FF1200030DBD0001CE
:0702E3000CED64084C70EC07
:0102EA0022F1
:030000000200B843
:0C00B800787FE4F6D8FD75812B0200FF74
:10023C00EF8DF0A4A8F0CF8CF0A428CE8DF0A42ED6
:02024C00FE2290
:10024E00BC000BBE0029EF8DF084FFADF022E4CC94
:10025E00F875F008EF2FFFEE33FEEC33FCEE9DEC5D
:10026E00984005FCEE9DFE0FD5F0E9E4CEFD22EDA3
:10027E00F8F5F0EE8420D21CFEADF075F008EF2FED
:10028E00FFED33FD4007985006D5F0F222C398FDDE
:05029E000FD5F0EA227B
:1000C4000203A1E493A3F8E493A34003F68001F2AE
:1000D40008DFF48029E493A3F85407240CC8C3333D
:1000E400C4540F4420C8834004F456800146F6DF0C
:1000F400E4800B010204081020408090032AE47E6F
:10010400019360BCA3FF543F30E509541FFEE49300
:10011400A360010ECF54C025E060A840B8E493A3C7
:10012400FAE493A3F8E493A3C8C582C8CAC583CAF2
:10013400F0A3C8C582C8CAC583CADFE9DEE780BEAA
:010368000094
:00000001FF
